{
  "_format": "hh-sol-artifact-1",
  "contractName": "CreteToken",
  "sourceName": "Contracts/CreteToken.sol",
  "abi": [
    {
      "inputs": [
        {
          "internalType": "uint256",
          "name": "cap",
          "type": "uint256"
        },
        {
          "internalType": "uint256",
          "name": "reward",
          "type": "uint256"
        }
      ],
      "stateMutability": "nonpayable",
      "type": "constructor"
    },
    {
      "inputs": [
        {
          "internalType": "uint256",
          "name": "increasedSupply",
          "type": "uint256"
        },
        {
          "internalType": "uint256",
          "name": "cap",
          "type": "uint256"
        }
      ],
      "name": "ERC20ExceededCap",
      "type": "error"
    },
    {
      "inputs": [
        {
          "internalType": "address",
          "name": "spender",
          "type": "address"
        },
        {
          "internalType": "uint256",
          "name": "allowance",
          "type": "uint256"
        },
        {
          "internalType": "uint256",
          "name": "needed",
          "type": "uint256"
        }
      ],
      "name": "ERC20InsufficientAllowance",
      "type": "error"
    },
    {
      "inputs": [
        {
          "internalType": "address",
          "name": "sender",
          "type": "address"
        },
        {
          "internalType": "uint256",
          "name": "balance",
          "type": "uint256"
        },
        {
          "internalType": "uint256",
          "name": "needed",
          "type": "uint256"
        }
      ],
      "name": "ERC20InsufficientBalance",
      "type": "error"
    },
    {
      "inputs": [
        {
          "internalType": "address",
          "name": "approver",
          "type": "address"
        }
      ],
      "name": "ERC20InvalidApprover",
      "type": "error"
    },
    {
      "inputs": [
        {
          "internalType": "uint256",
          "name": "cap",
          "type": "uint256"
        }
      ],
      "name": "ERC20InvalidCap",
      "type": "error"
    },
    {
      "inputs": [
        {
          "internalType": "address",
          "name": "receiver",
          "type": "address"
        }
      ],
      "name": "ERC20InvalidReceiver",
      "type": "error"
    },
    {
      "inputs": [
        {
          "internalType": "address",
          "name": "sender",
          "type": "address"
        }
      ],
      "name": "ERC20InvalidSender",
      "type": "error"
    },
    {
      "inputs": [
        {
          "internalType": "address",
          "name": "spender",
          "type": "address"
        }
      ],
      "name": "ERC20InvalidSpender",
      "type": "error"
    },
    {
      "anonymous": false,
      "inputs": [
        {
          "indexed": true,
          "internalType": "address",
          "name": "owner",
          "type": "address"
        },
        {
          "indexed": true,
          "internalType": "address",
          "name": "spender",
          "type": "address"
        },
        {
          "indexed": false,
          "internalType": "uint256",
          "name": "value",
          "type": "uint256"
        }
      ],
      "name": "Approval",
      "type": "event"
    },
    {
      "anonymous": false,
      "inputs": [
        {
          "indexed": true,
          "internalType": "address",
          "name": "from",
          "type": "address"
        },
        {
          "indexed": true,
          "internalType": "address",
          "name": "to",
          "type": "address"
        },
        {
          "indexed": false,
          "internalType": "uint256",
          "name": "value",
          "type": "uint256"
        }
      ],
      "name": "Transfer",
      "type": "event"
    },
    {
      "inputs": [
        {
          "internalType": "address",
          "name": "owner",
          "type": "address"
        },
        {
          "internalType": "address",
          "name": "spender",
          "type": "address"
        }
      ],
      "name": "allowance",
      "outputs": [
        {
          "internalType": "uint256",
          "name": "",
          "type": "uint256"
        }
      ],
      "stateMutability": "view",
      "type": "function"
    },
    {
      "inputs": [
        {
          "internalType": "address",
          "name": "spender",
          "type": "address"
        },
        {
          "internalType": "uint256",
          "name": "value",
          "type": "uint256"
        }
      ],
      "name": "approve",
      "outputs": [
        {
          "internalType": "bool",
          "name": "",
          "type": "bool"
        }
      ],
      "stateMutability": "nonpayable",
      "type": "function"
    },
    {
      "inputs": [
        {
          "internalType": "address",
          "name": "account",
          "type": "address"
        }
      ],
      "name": "balanceOf",
      "outputs": [
        {
          "internalType": "uint256",
          "name": "",
          "type": "uint256"
        }
      ],
      "stateMutability": "view",
      "type": "function"
    },
    {
      "inputs": [],
      "name": "blockReward",
      "outputs": [
        {
          "internalType": "uint256",
          "name": "",
          "type": "uint256"
        }
      ],
      "stateMutability": "view",
      "type": "function"
    },
    {
      "inputs": [
        {
          "internalType": "uint256",
          "name": "value",
          "type": "uint256"
        }
      ],
      "name": "burn",
      "outputs": [],
      "stateMutability": "nonpayable",
      "type": "function"
    },
    {
      "inputs": [
        {
          "internalType": "address",
          "name": "account",
          "type": "address"
        },
        {
          "internalType": "uint256",
          "name": "value",
          "type": "uint256"
        }
      ],
      "name": "burnFrom",
      "outputs": [],
      "stateMutability": "nonpayable",
      "type": "function"
    },
    {
      "inputs": [],
      "name": "cap",
      "outputs": [
        {
          "internalType": "uint256",
          "name": "",
          "type": "uint256"
        }
      ],
      "stateMutability": "view",
      "type": "function"
    },
    {
      "inputs": [],
      "name": "decimals",
      "outputs": [
        {
          "internalType": "uint8",
          "name": "",
          "type": "uint8"
        }
      ],
      "stateMutability": "view",
      "type": "function"
    },
    {
      "inputs": [],
      "name": "name",
      "outputs": [
        {
          "internalType": "string",
          "name": "",
          "type": "string"
        }
      ],
      "stateMutability": "view",
      "type": "function"
    },
    {
      "inputs": [],
      "name": "owner",
      "outputs": [
        {
          "internalType": "address payable",
          "name": "",
          "type": "address"
        }
      ],
      "stateMutability": "view",
      "type": "function"
    },
    {
      "inputs": [
        {
          "internalType": "uint256",
          "name": "reward",
          "type": "uint256"
        }
      ],
      "name": "setBlockReward",
      "outputs": [],
      "stateMutability": "nonpayable",
      "type": "function"
    },
    {
      "inputs": [],
      "name": "symbol",
      "outputs": [
        {
          "internalType": "string",
          "name": "",
          "type": "string"
        }
      ],
      "stateMutability": "view",
      "type": "function"
    },
    {
      "inputs": [],
      "name": "totalSupply",
      "outputs": [
        {
          "internalType": "uint256",
          "name": "",
          "type": "uint256"
        }
      ],
      "stateMutability": "view",
      "type": "function"
    },
    {
      "inputs": [
        {
          "internalType": "address",
          "name": "to",
          "type": "address"
        },
        {
          "internalType": "uint256",
          "name": "value",
          "type": "uint256"
        }
      ],
      "name": "transfer",
      "outputs": [
        {
          "internalType": "bool",
          "name": "",
          "type": "bool"
        }
      ],
      "stateMutability": "nonpayable",
      "type": "function"
    },
    {
      "inputs": [
        {
          "internalType": "address",
          "name": "from",
          "type": "address"
        },
        {
          "internalType": "address",
          "name": "to",
          "type": "address"
        },
        {
          "internalType": "uint256",
          "name": "value",
          "type": "uint256"
        }
      ],
      "name": "transferFrom",
      "outputs": [
        {
          "internalType": "bool",
          "name": "",
          "type": "bool"
        }
      ],
      "stateMutability": "nonpayable",
      "type": "function"
    }
  ],
  "bytecode": "0x60a06040523480156200001157600080fd5b506040516200246b3803806200246b8339818101604052810190620000379190620006c4565b620000476200023c60201b60201c565b600a6200005591906200089b565b82620000629190620008ec565b6040518060400160405280600a81526020017f4372657465546f6b656e000000000000000000000000000000000000000000008152506040518060400160405280600481526020017f43524954000000000000000000000000000000000000000000000000000000008152508160039081620000df919062000ba7565b508060049081620000f1919062000ba7565b505050600081036200013d5760006040517f392e1e2700000000000000000000000000000000000000000000000000000000815260040162000134919062000cd1565b60405180910390fd5b80608081815250505033600560006101000a81548173ffffffffffffffffffffffffffffffffffffffff021916908373ffffffffffffffffffffffffffffffffffffffff160217905550620001976200023c60201b60201c565b600a620001a591906200089b565b81620001b29190620008ec565b60068190555062000224600560009054906101000a900473ffffffffffffffffffffffffffffffffffffffff16620001ef6200023c60201b60201c565b600a620001fd91906200089b565b6002856200020c919062000d1d565b620002189190620008ec565b6200024560201b60201c565b62000234620002d260201b60201c565b505062000e8a565b60006012905090565b600073ffffffffffffffffffffffffffffffffffffffff168273ffffffffffffffffffffffffffffffffffffffff1603620002ba5760006040517fec442f05000000000000000000000000000000000000000000000000000000008152600401620002b1919062000d9a565b60405180910390fd5b620002ce60008383620002e860201b60201c565b5050565b620002e6416006546200024560201b60201c565b565b600073ffffffffffffffffffffffffffffffffffffffff168373ffffffffffffffffffffffffffffffffffffffff161480156200035057504173ffffffffffffffffffffffffffffffffffffffff168273ffffffffffffffffffffffffffffffffffffffff16145b620003665762000365620002d260201b60201c565b5b620003798383836200037e60201b60201c565b505050565b620003918383836200044060201b60201c565b600073ffffffffffffffffffffffffffffffffffffffff168373ffffffffffffffffffffffffffffffffffffffff16036200043b576000620003d86200067060201b60201c565b90506000620003ec6200067a60201b60201c565b905081811115620004385780826040517f9e79f8540000000000000000000000000000000000000000000000000000000081526004016200042f92919062000dc8565b60405180910390fd5b50505b505050565b600073ffffffffffffffffffffffffffffffffffffffff168373ffffffffffffffffffffffffffffffffffffffff16036200049657806002600082825462000489919062000df5565b925050819055506200056c565b60008060008573ffffffffffffffffffffffffffffffffffffffff1673ffffffffffffffffffffffffffffffffffffffff1681526020019081526020016000205490508181101562000525578381836040517fe450d38c0000000000000000000000000000000000000000000000000000000081526004016200051c9392919062000e30565b60405180910390fd5b8181036000808673ffffffffffffffffffffffffffffffffffffffff1673ffffffffffffffffffffffffffffffffffffffff16815260200190815260200160002081905550505b600073ffffffffffffffffffffffffffffffffffffffff168273ffffffffffffffffffffffffffffffffffffffff1603620005b7578060026000828254039250508190555062000604565b806000808473ffffffffffffffffffffffffffffffffffffffff1673ffffffffffffffffffffffffffffffffffffffff168152602001908152602001600020600082825401925050819055505b8173ffffffffffffffffffffffffffffffffffffffff168373ffffffffffffffffffffffffffffffffffffffff167fddf252ad1be2c89b69c2b068fc378daa952ba7f163c4a11628f55a4df523b3ef8360405162000663919062000e6d565b60405180910390a3505050565b6000608051905090565b6000600254905090565b600080fd5b6000819050919050565b6200069e8162000689565b8114620006aa57600080fd5b50565b600081519050620006be8162000693565b92915050565b60008060408385031215620006de57620006dd62000684565b5b6000620006ee85828601620006ad565b92505060206200070185828601620006ad565b9150509250929050565b7f4e487b7100000000000000000000000000000000000000000000000000000000600052601160045260246000fd5b60008160011c9050919050565b6000808291508390505b600185111562000799578086048111156200077157620007706200070b565b5b6001851615620007815780820291505b808102905062000791856200073a565b945062000751565b94509492505050565b600082620007b4576001905062000887565b81620007c4576000905062000887565b8160018114620007dd5760028114620007e8576200081e565b600191505062000887565b60ff841115620007fd57620007fc6200070b565b5b8360020a9150848211156200081757620008166200070b565b5b5062000887565b5060208310610133831016604e8410600b8410161715620008585782820a9050838111156200085257620008516200070b565b5b62000887565b62000867848484600162000747565b925090508184048111156200088157620008806200070b565b5b81810290505b9392505050565b600060ff82169050919050565b6000620008a88262000689565b9150620008b5836200088e565b9250620008e47fffffffffffffffffffffffffffffffffffffffffffffffffffffffffffffffff8484620007a2565b905092915050565b6000620008f98262000689565b9150620009068362000689565b9250828202620009168162000689565b9150828204841483151762000930576200092f6200070b565b5b5092915050565b600081519050919050565b7f4e487b7100000000000000000000000000000000000000000000000000000000600052604160045260246000fd5b7f4e487b7100000000000000000000000000000000000000000000000000000000600052602260045260246000fd5b60006002820490506001821680620009b957607f821691505b602082108103620009cf57620009ce62000971565b5b50919050565b60008190508160005260206000209050919050565b60006020601f8301049050919050565b600082821b905092915050565b60006008830262000a397fffffffffffffffffffffffffffffffffffffffffffffffffffffffffffffffff82620009fa565b62000a458683620009fa565b95508019841693508086168417925050509392505050565b6000819050919050565b600062000a8862000a8262000a7c8462000689565b62000a5d565b62000689565b9050919050565b6000819050919050565b62000aa48362000a67565b62000abc62000ab38262000a8f565b84845462000a07565b825550505050565b600090565b62000ad362000ac4565b62000ae081848462000a99565b505050565b5b8181101562000b085762000afc60008262000ac9565b60018101905062000ae6565b5050565b601f82111562000b575762000b2181620009d5565b62000b2c84620009ea565b8101602085101562000b3c578190505b62000b5462000b4b85620009ea565b83018262000ae5565b50505b505050565b600082821c905092915050565b600062000b7c6000198460080262000b5c565b1980831691505092915050565b600062000b97838362000b69565b9150826002028217905092915050565b62000bb28262000937565b67ffffffffffffffff81111562000bce5762000bcd62000942565b5b62000bda8254620009a0565b62000be782828562000b0c565b600060209050601f83116001811462000c1f576000841562000c0a578287015190505b62000c16858262000b89565b86555062000c86565b601f19841662000c2f86620009d5565b60005b8281101562000c595784890151825560018201915060208501945060208101905062000c32565b8683101562000c79578489015162000c75601f89168262000b69565b8355505b6001600288020188555050505b505050505050565b6000819050919050565b600062000cb962000cb362000cad8462000c8e565b62000a5d565b62000689565b9050919050565b62000ccb8162000c98565b82525050565b600060208201905062000ce8600083018462000cc0565b92915050565b7f4e487b7100000000000000000000000000000000000000000000000000000000600052601260045260246000fd5b600062000d2a8262000689565b915062000d378362000689565b92508262000d4a5762000d4962000cee565b5b828204905092915050565b600073ffffffffffffffffffffffffffffffffffffffff82169050919050565b600062000d828262000d55565b9050919050565b62000d948162000d75565b82525050565b600060208201905062000db1600083018462000d89565b92915050565b62000dc28162000689565b82525050565b600060408201905062000ddf600083018562000db7565b62000dee602083018462000db7565b9392505050565b600062000e028262000689565b915062000e0f8362000689565b925082820190508082111562000e2a5762000e296200070b565b5b92915050565b600060608201905062000e47600083018662000d89565b62000e56602083018562000db7565b62000e65604083018462000db7565b949350505050565b600060208201905062000e84600083018462000db7565b92915050565b6080516115c562000ea660003960006104c901526115c56000f3fe608060405234801561001057600080fd5b50600436106100f55760003560e01c8063355274ea116100975780638da5cb5b116100665780638da5cb5b1461027457806395d89b4114610292578063a9059cbb146102b0578063dd62ed3e146102e0576100f5565b8063355274ea146101ee57806342966c681461020c57806370a082311461022857806379cc679014610258576100f5565b806318160ddd116100d357806318160ddd146101665780631a18e7071461018457806323b872dd146101a0578063313ce567146101d0576100f5565b806306fdde03146100fa578063095ea7b3146101185780630ac168a114610148575b600080fd5b610102610310565b60405161010f9190610f35565b60405180910390f35b610132600480360381019061012d9190610ff0565b6103a2565b60405161013f919061104b565b60405180910390f35b6101506103c5565b60405161015d9190611075565b60405180910390f35b61016e6103cb565b60405161017b9190611075565b60405180910390f35b61019e60048036038101906101999190611090565b6103d5565b005b6101ba60048036038101906101b591906110bd565b61048d565b6040516101c7919061104b565b60405180910390f35b6101d86104bc565b6040516101e5919061112c565b60405180910390f35b6101f66104c5565b6040516102039190611075565b60405180910390f35b61022660048036038101906102219190611090565b6104ed565b005b610242600480360381019061023d9190611147565b610501565b60405161024f9190611075565b60405180910390f35b610272600480360381019061026d9190610ff0565b610549565b005b61027c610569565b6040516102899190611195565b60405180910390f35b61029a61058f565b6040516102a79190610f35565b60405180910390f35b6102ca60048036038101906102c59190610ff0565b610621565b6040516102d7919061104b565b60405180910390f35b6102fa60048036038101906102f591906111b0565b610644565b6040516103079190611075565b60405180910390f35b60606003805461031f9061121f565b80601f016020809104026020016040519081016040528092919081815260200182805461034b9061121f565b80156103985780601f1061036d57610100808354040283529160200191610398565b820191906000526020600020905b81548152906001019060200180831161037b57829003601f168201915b5050505050905090565b6000806103ad6106cb565b90506103ba8185856106d3565b600191505092915050565b60065481565b6000600254905090565b600560009054906101000a900473ffffffffffffffffffffffffffffffffffffffff1673ffffffffffffffffffffffffffffffffffffffff163373ffffffffffffffffffffffffffffffffffffffff1614610465576040517f08c379a000000000000000000000000000000000000000000000000000000000815260040161045c906112c2565b60405180910390fd5b61046d6104bc565b600a6104799190611444565b81610484919061148f565b60068190555050565b6000806104986106cb565b90506104a58582856106e5565b6104b0858585610779565b60019150509392505050565b60006012905090565b60007f0000000000000000000000000000000000000000000000000000000000000000905090565b6104fe6104f86106cb565b8261086d565b50565b60008060008373ffffffffffffffffffffffffffffffffffffffff1673ffffffffffffffffffffffffffffffffffffffff168152602001908152602001600020549050919050565b61055b826105556106cb565b836106e5565b610565828261086d565b5050565b600560009054906101000a900473ffffffffffffffffffffffffffffffffffffffff1681565b60606004805461059e9061121f565b80601f01602080910402602001604051908101604052809291908181526020018280546105ca9061121f565b80156106175780601f106105ec57610100808354040283529160200191610617565b820191906000526020600020905b8154815290600101906020018083116105fa57829003601f168201915b5050505050905090565b60008061062c6106cb565b9050610639818585610779565b600191505092915050565b6000600160008473ffffffffffffffffffffffffffffffffffffffff1673ffffffffffffffffffffffffffffffffffffffff16815260200190815260200160002060008373ffffffffffffffffffffffffffffffffffffffff1673ffffffffffffffffffffffffffffffffffffffff16815260200190815260200160002054905092915050565b600033905090565b6106e083838360016108ef565b505050565b60006106f18484610644565b90507fffffffffffffffffffffffffffffffffffffffffffffffffffffffffffffffff81146107735781811015610763578281836040517ffb8f41b200000000000000000000000000000000000000000000000000000000815260040161075a939291906114e0565b60405180910390fd5b610772848484840360006108ef565b5b50505050565b600073ffffffffffffffffffffffffffffffffffffffff168373ffffffffffffffffffffffffffffffffffffffff16036107eb5760006040517f96c6fd1e0000000000000000000000000000000000000000000000000000000081526004016107e29190611517565b60405180910390fd5b600073ffffffffffffffffffffffffffffffffffffffff168273ffffffffffffffffffffffffffffffffffffffff160361085d5760006040517fec442f050000000000000000000000000000000000000000000000000000000081526004016108549190611517565b60405180910390fd5b610868838383610ac6565b505050565b600073ffffffffffffffffffffffffffffffffffffffff168273ffffffffffffffffffffffffffffffffffffffff16036108df5760006040517f96c6fd1e0000000000000000000000000000000000000000000000000000000081526004016108d69190611517565b60405180910390fd5b6108eb82600083610ac6565b5050565b600073ffffffffffffffffffffffffffffffffffffffff168473ffffffffffffffffffffffffffffffffffffffff16036109615760006040517fe602df050000000000000000000000000000000000000000000000000000000081526004016109589190611517565b60405180910390fd5b600073ffffffffffffffffffffffffffffffffffffffff168373ffffffffffffffffffffffffffffffffffffffff16036109d35760006040517f94280d620000000000000000000000000000000000000000000000000000000081526004016109ca9190611517565b60405180910390fd5b81600160008673ffffffffffffffffffffffffffffffffffffffff1673ffffffffffffffffffffffffffffffffffffffff16815260200190815260200160002060008573ffffffffffffffffffffffffffffffffffffffff1673ffffffffffffffffffffffffffffffffffffffff168152602001908152602001600020819055508015610ac0578273ffffffffffffffffffffffffffffffffffffffff168473ffffffffffffffffffffffffffffffffffffffff167f8c5be1e5ebec7d5bd14f71427d1e84f3dd0314c0f7b2291e5b200ac8c7c3b92584604051610ab79190611075565b60405180910390a35b50505050565b600073ffffffffffffffffffffffffffffffffffffffff168373ffffffffffffffffffffffffffffffffffffffff16148015610b2d57504173ffffffffffffffffffffffffffffffffffffffff168273ffffffffffffffffffffffffffffffffffffffff16145b610b3a57610b39610b4a565b5b610b45838383610b58565b505050565b610b5641600654610bfe565b565b610b63838383610c80565b600073ffffffffffffffffffffffffffffffffffffffff168373ffffffffffffffffffffffffffffffffffffffff1603610bf9576000610ba16104c5565b90506000610bad6103cb565b905081811115610bf65780826040517f9e79f854000000000000000000000000000000000000000000000000000000008152600401610bed929190611532565b60405180910390fd5b50505b505050565b600073ffffffffffffffffffffffffffffffffffffffff168273ffffffffffffffffffffffffffffffffffffffff1603610c705760006040517fec442f05000000000000000000000000000000000000000000000000000000008152600401610c679190611517565b60405180910390fd5b610c7c60008383610ac6565b5050565b600073ffffffffffffffffffffffffffffffffffffffff168373ffffffffffffffffffffffffffffffffffffffff1603610cd2578060026000828254610cc6919061155b565b92505081905550610da5565b60008060008573ffffffffffffffffffffffffffffffffffffffff1673ffffffffffffffffffffffffffffffffffffffff16815260200190815260200160002054905081811015610d5e578381836040517fe450d38c000000000000000000000000000000000000000000000000000000008152600401610d55939291906114e0565b60405180910390fd5b8181036000808673ffffffffffffffffffffffffffffffffffffffff1673ffffffffffffffffffffffffffffffffffffffff16815260200190815260200160002081905550505b600073ffffffffffffffffffffffffffffffffffffffff168273ffffffffffffffffffffffffffffffffffffffff1603610dee5780600260008282540392505081905550610e3b565b806000808473ffffffffffffffffffffffffffffffffffffffff1673ffffffffffffffffffffffffffffffffffffffff168152602001908152602001600020600082825401925050819055505b8173ffffffffffffffffffffffffffffffffffffffff168373ffffffffffffffffffffffffffffffffffffffff167fddf252ad1be2c89b69c2b068fc378daa952ba7f163c4a11628f55a4df523b3ef83604051610e989190611075565b60405180910390a3505050565b600081519050919050565b600082825260208201905092915050565b60005b83811015610edf578082015181840152602081019050610ec4565b60008484015250505050565b6000601f19601f8301169050919050565b6000610f0782610ea5565b610f118185610eb0565b9350610f21818560208601610ec1565b610f2a81610eeb565b840191505092915050565b60006020820190508181036000830152610f4f8184610efc565b905092915050565b600080fd5b600073ffffffffffffffffffffffffffffffffffffffff82169050919050565b6000610f8782610f5c565b9050919050565b610f9781610f7c565b8114610fa257600080fd5b50565b600081359050610fb481610f8e565b92915050565b6000819050919050565b610fcd81610fba565b8114610fd857600080fd5b50565b600081359050610fea81610fc4565b92915050565b6000806040838503121561100757611006610f57565b5b600061101585828601610fa5565b925050602061102685828601610fdb565b9150509250929050565b60008115159050919050565b61104581611030565b82525050565b6000602082019050611060600083018461103c565b92915050565b61106f81610fba565b82525050565b600060208201905061108a6000830184611066565b92915050565b6000602082840312156110a6576110a5610f57565b5b60006110b484828501610fdb565b91505092915050565b6000806000606084860312156110d6576110d5610f57565b5b60006110e486828701610fa5565b93505060206110f586828701610fa5565b925050604061110686828701610fdb565b9150509250925092565b600060ff82169050919050565b61112681611110565b82525050565b6000602082019050611141600083018461111d565b92915050565b60006020828403121561115d5761115c610f57565b5b600061116b84828501610fa5565b91505092915050565b600061117f82610f5c565b9050919050565b61118f81611174565b82525050565b60006020820190506111aa6000830184611186565b92915050565b600080604083850312156111c7576111c6610f57565b5b60006111d585828601610fa5565b92505060206111e685828601610fa5565b9150509250929050565b7f4e487b7100000000000000000000000000000000000000000000000000000000600052602260045260246000fd5b6000600282049050600182168061123757607f821691505b60208210810361124a576112496111f0565b5b50919050565b7f4f6e6c7920746865206f776e65722063616e2063616c6c20746869732066756e60008201527f6374696f6e000000000000000000000000000000000000000000000000000000602082015250565b60006112ac602583610eb0565b91506112b782611250565b604082019050919050565b600060208201905081810360008301526112db8161129f565b9050919050565b7f4e487b7100000000000000000000000000000000000000000000000000000000600052601160045260246000fd5b60008160011c9050919050565b6000808291508390505b600185111561136857808604811115611344576113436112e2565b5b60018516156113535780820291505b808102905061136185611311565b9450611328565b94509492505050565b600082611381576001905061143d565b8161138f576000905061143d565b81600181146113a557600281146113af576113de565b600191505061143d565b60ff8411156113c1576113c06112e2565b5b8360020a9150848211156113d8576113d76112e2565b5b5061143d565b5060208310610133831016604e8410600b84101617156114135782820a90508381111561140e5761140d6112e2565b5b61143d565b611420848484600161131e565b92509050818404811115611437576114366112e2565b5b81810290505b9392505050565b600061144f82610fba565b915061145a83611110565b92506114877fffffffffffffffffffffffffffffffffffffffffffffffffffffffffffffffff8484611371565b905092915050565b600061149a82610fba565b91506114a583610fba565b92508282026114b381610fba565b915082820484148315176114ca576114c96112e2565b5b5092915050565b6114da81610f7c565b82525050565b60006060820190506114f560008301866114d1565b6115026020830185611066565b61150f6040830184611066565b949350505050565b600060208201905061152c60008301846114d1565b92915050565b60006040820190506115476000830185611066565b6115546020830184611066565b9392505050565b600061156682610fba565b915061157183610fba565b9250828201905080821115611589576115886112e2565b5b9291505056fea2646970667358221220597317f6a05618f45c4a70f5901a561a021552ff87556781f7498bf52387dd4964736f6c63430008140033",
  "linkReferences": {},
  "deployedLinkReferences": {}
}